:020000040800F2
:1000000000000220B9020008BF020008C302000875
:10001000DB020008DF020008F70200080000000011
:100020000000000000000000000000000F030008B6
:100030001303000800000000170300080511000862
:1000400029030008290300082903000829030008E0
:1000500029030008290300082903000829030008D0
:1000600029030008290300082903000829030008C0
:1000700029030008290300082903000829030008B0
:1000800029030008290300082903000829030008A0
:100090002903000829030008290300082903000890
:1000A0002903000829030008290300082903000880
:1000B0002903000829030008290300082903000870
:1000C0002903000829030008290300082903000860
:1000D0002903000829030008290300082903000850
:1000E0002903000829030008290300082903000840
:1000F0002903000829030008290300082903000830
:10010000290300082903000829030008290300081F
:10011000290300082903000829030008290300080F
:1001200029030008290300082903000829030008FF
:1001300029030008290300082903000829030008EF
:1001400029030008290300082903000829030008DF
:1001500029030008290300082903000829030008CF
:1001600029030008290300082903000829030008BF
:1001700029030008290300082903000800000000E3
:10018000290300082903000800B583B000F0F0FE41
:10019000384B394A1360394A1360394906E052F83E
:1001A000041B43F8041B9842F9D86146354B994229
:1001B00005D20A684B6801F10C0C8868F3E72E4BF6
:1001C0001A68314B9A4200D0FEE72C4B1A682F4B2D
:1001D0009A42F9D1274B2E4A13602E4A13602E4AB9
:1001E00000E002462D4B9A4209D2104650F8083BD7
:1001F00051689942F5D9002243F8042BF9E7244BC2
:100200001B6813B9234B1B6803B1FEE700F0CEFF58
:10021000694601A800F0A0FE214C224BE41AA4106C
:10022000002504E01F4B53F8253098470135AC42B8
:10023000F8DC1D4C1D4BE41AA410002504E01B4BF8
:1002400053F8253098470135AC42F8DC0099019805
:1002500000F0B4FF0546164C164BE41AA41004E057
:10026000013C144B53F824309847002CF8DC284606
:1002700000F06CFEBABADECA0000002010000020B8
:100280002C03000844030008785634123254769840
:100290001400002024000020440300085403000838
:1002A00054030008540300085403000854030008D2
:1002B000540300085403000808B5FFF765FF00BEAB
:1002C000FEE71EF0040F0CBFEFF30880EFF3098088
:1002D0007146124A104700BEFEE700BEFEE71EF060
:1002E000040F0CBFEFF30880EFF3098071460C4A4E
:1002F000104700BEFEE71EF0040F0CBFEFF30880AE
:10030000EFF309807146074A104700BEFEE700BEC2
:10031000FEE700BEFEE700BEFEE77047D70200081A
:0C032000F30200080B03000800BEFEE71B
:10032C00B41200080000002014000020B4120008D1
:10033C000000001000000010140000202800002015
:08034C00000000100000001089
:1003540010B50446074B1868074BA3FB003080090F
:1003640000F098F8002221464FF0FF3000F04CF8DE
:10037400002010BD0C000020D34D621008B50B4BBB
:100384001A6842F400721A601A6842F480621A60B1
:100394001A6842F480721A60032000F017F80F20E4
:1003A400FFF7D6FF00F028FF002008BD003C024004
:1003B400024A136801331360704700BF180000201D
:1003C400014B1868704700BF1800002010B50446A0
:1003D400C31E042B0FD80A4AD36823F4E0631B041A
:1003E4001B0C240204F4E064234343F0BF6343F48E
:1003F4000033D36010BDA421024800F0B3FDEAE746
:1004040000ED00E00012000870B505460C461646E3
:100414000F2A25D80F2C28D81B4BDB68C3F30223E3
:10042400C3F10702042A28BF0422191D062921D971
:10043400033B4FF0FF3101FA02F224EA02049C402C
:10044400994026EA010644EA0602002D14DB120153
:10045400D2B205F1604505F5614585F8002370BD0C
:10046400BC210A4800F07EFDD4E7BD21074800F016
:1004740079FDD1E70023DCE705F00F051201D2B2C4
:10048400034B5A55EBE700BF00ED00E000120008F3
:1004940014ED00E00138B0F1807F0BD24FF0E0237F
:1004A4005861054AF02182F8231000209861072240
:1004B4001A6170470120704700ED00E010B5044652
:1004C400042800D040B9042C0CD04FF0E02213696A
:1004D40023F00403136110BD40F2B311054800F08A
:1004E40041FDF0E74FF0E022136943F00403136188
:1004F400F1E700BF001200082DE9F04782B007467B
:100504000E46A94B984223D003F5806398421FD02E
:1005140003F5806398421BD003F58063984217D09B
:1005240003F58063984213D003F5806398420FD09B
:1005340003F5806398420BD003F58063984207D09B
:1005440003F58063984203D0C521984800F00AFD62
:1005540033887BB17368012B16D9954A934213D023
:100564001AD8A2F5801293420ED008D9914A934228
:100574000AD01CE0C6218D4800F0F4FCEAE7032B06
:1005840007D9113B012B12D8B368022B14D80024CD
:10059400DEE0022B0BD3F7E7874A9342F4D002F54F
:1005A40080329342F0D0A2F580129342ECD0C7215E
:1005B4007E4800F0D7FCE7E7C8217C4800F0D2FC75
:1005C400E5E70F2B40F0DE80E208083257F82200FE
:1005D40004F0070189000F238B4020EA03003369EC
:1005E4008B40034347F822303A684FEA440A032316
:1005F40003FA0AF36FEA030922EA0302736803F0B9
:10060400030303FA0AF313433B6073685A1E012A77
:1006140003D9112B01D0122B13D1F368032B5AD811
:10062400BA6809EA0202F36803FA0AF31343BB60E7
:100634007A6822EA05027368C3F30013A3401343E4
:100644007B60FB6809EA0309B36803FA0AF343EA27
:100654000903FB60736813F0805F78D00023019373
:10066400564B5A6C42F480425A645B6C03F48043E8
:100674000193019BA208911C514B53F8210004F0F3
:10068400030189000F238B4020EA0300464B9F425D
:1006940028D003F580639F4279D003F580639F429D
:1006A40077D003F580639F4275D003F580639F4242
:1006B40073D003F580639F4271D003F580639F423A
:1006C4006FD003F580639F427ED003F580639F4221
:1006D40006D0092307E0EC21344800F043FC9FE7EF
:1006E400082300E000238B4003430232344941F8DD
:1006F4002230344B1A686FEA080322EA0801706852
:1007040010F4803F01D048EA02012E4A1160526879
:1007140003EA0201706810F4003F01D048EA0201C4
:10072400284A5160926803EA0201706810F4801F3D
:1007340001D048EA0201234A9160D26813407168EB
:1007440011F4001F01D048EA02031E4AD3600134A9
:100754000F2C3BD80125A540336803EA050835EA88
:100764000303F4D17368022B02D0122B7FF43CAF45
:100774003369002B3FF428AF0D2B3FF622AF002B3B
:100784007FF422AFD921094800F0ECFB1CE70123D8
:10079400A9E70223A7E70323A5E70423A3E7052387
:1007A400A1E706239FE700BF0000024034120008BF
:1007B4000000211000001210000031100038024027
:1007C40000380140003C014007238CE702B0BDE83B
:1007D400F08700BF70B5054614460E4621B1012CC2
:1007E40008D86CB1AE6170BD40F2B111064800F09A
:1007F400B9FBF4E74FF4D971034800F0B3FBF0E719
:100804003604AE61EFE700BF3412000830B583B0A0
:10081400044603680F2B29D8236813F0010F3DD039
:100824006368012B01D9052B25D1A34B9B6803F0E9
:100834000C03042B29D0A04B9B6803F00C03082B5A
:100844001ED022799C4B9A706368002B50D0FFF71E
:10085400B7FD0546984B1B6813F4003F1ED1FFF704
:10086400AFFD401B6428F5D90320E1E1F52193484D
:1008740000F078FBD0E7FA21904800F073FBD4E74E
:100884008D4B5B6813F4800FDBD08B4B1B6813F428
:10089400003F03D06368002B00F0C581236813F088
:1008A400020F5BD0E368012B31D823691F2B34D8A6
:1008B400814B9B6813F00C0F3AD07F4B9B6803F07D
:1008C4000C03082B2FD0E368002B72D07C4B012241
:1008D4001A60FFF775FD0546774B1B6813F0020F8E
:1008E40059D1FFF76DFD401B0228F5D903209FE184
:1008F400FFF766FD0546704B1B6813F4003FCDD02F
:10090400FFF75EFD401B6428F5D9032090E14FF406
:1009140096716A4800F026FBC7E740F22D1167483C
:1009240000F020FBC4E7644B5B6813F4800FCAD16A
:10093400614B1B6813F0020F03D0E368012B40F0F6
:1009440074815D48036823F0F8032169F82292FA60
:10095400A2F2B2FA82F291400B430360236813F0CF
:10096400080F51D06369012B35D86369002B38D047
:10097400534B0122C3F8802EFFF722FD05464E4B50
:100984005B6F13F0020F3FD1FFF71AFD401B0228E3
:10099400F5D903204CE14848036823F0F8032169A2
:1009A400F82292FAA2F2B2FA82F291400B43036067
:1009B400D4E7434B00221A60FFF702FD05463E4B85
:1009C4001B6813F0020FC9D0FFF7FAFC401B022882
:1009D400F5D903202CE140F26D11384800F0C2FA39
:1009E400C3E7374B0022C3F8802EFFF7E9FC054626
:1009F400314B5B6F13F0020F06D0FFF7E1FC401B95
:100A04000228F5D9032013E1236813F0040F5BD007
:100A1400A368012B01D9052B1FD100230193264B79
:100A24001A6C42F080521A641B6C03F080530193D9
:100A3400019B244A136843F480731360FFF7C0FCDE
:100A44000546204B1B6813F4807F0CD1FFF7B8FCDC
:100A5400401B0228F5D90320EAE040F29711174819
:100A640000F080FAD9E7227A134B83F87020A36848
:100A740083B1FFF7A5FC05460F4B1B6F13F0020F64
:100A840022D1FFF79DFC401B41F288339842F3D9F1
:100A94000320CDE0FFF794FC0546074B1B6F13F0D2
:100AA400020F11D0FFF78CFC401B41F288339842AF
:100AB400F3D90320BCE000BF0038024064120008F0
:100AC4000000474200700040A369022B3CD8A36990
:100AD400002B00F0AC80584A926802F00C02082AFD
:100AE40000F0A880022B40F08A80E36913B1B3F5CB
:100AF400800F2FD1236A3F2B32D8636A323BB3F580
:100B0400BF7F33D8A36A022B08D0082B34D84FF404
:100B1400A87222FA03F313F0010F2DD0E36A043B09
:100B24000B2B2FD8454B00221A66FFF749FC0546CC
:100B3400414B1B6813F0007F2AD0FFF741FC401B98
:100B44000228F5D9032073E04FF4E6713C4800F025
:100B540009FABCE740F2D511394800F003FAC9E7B5
:100B64004FF4EB71364800F0FDF9C6E740F2D711B7
:100B7400334800F0F7F9C5E74FF4EC71304800F062
:100B8400F1F9CBE740F2D9112D4800F0EBF9C9E7B0
:100B9400E369226A1343616A47F6C07292FAA2F2C9
:100BA400B2FA82F291400B43A26A5208013A4FF41E
:100BB400403191FAA1F1B1FA81F18A401343E16A1B
:100BC4004FF0706292FAA2F2B2FA82F201FA02F2E1
:100BD4001343194A5360194B01221A66FFF7F0FBBD
:100BE4000446154B1B6813F0007F06D1FFF7E8FBA2
:100BF400001B0228F5D903201AE0002018E00F4B4F
:100C040000221A66FFF7DCFB04460B4B1B6813F04B
:100C1400007F06D0FFF7D4FB001B0228F5D9032080
:100C240006E0002004E0012002E0012000E00020B2
:100C340003B030BD0120FBE700380240000047420A
:100C440064120008224B9B6803F00C03042B3AD077
:100C5400082B3AD11E4A536803F03F03526812F43A
:100C6400800F1FD01B48B0FBF3F0194B5A6847F6AE
:100C7400C0731A4093FAA3F3B3FA83F322FA03F38B
:100C840003FB00F0124B5B6803F440334FF4403233
:100C940092FAA2F2B2FA82F2D34001335B00B0FBC3
:100CA400F3F070470C48B0FBF3F0094B5A6847F671
:100CB400C0731A4093FAA3F3B3FA83F322FA03F34B
:100CC40003FB00F0DEE7034870470348704700BFAA
:100CD4000038024000127A000024F40070B5044683
:100CE4000D460368013B0E2B1FD8072D23D88E4BCE
:100CF4001B6803F00F03AB4208D2EBB28A4A1370AD
:100D0400136803F00F03AB4240F00781236813F02C
:100D1400020F21D0A368C3B1C02B16D04DD8A02B8D
:100D240013D00ED9B02B10D04DE040F237217F48BC
:100D340000F018F9D9E74FF40E717C4800F012F96D
:100D4400D5E7802B01D0902B3DD1794A936823F0CD
:100D5400F003A1680B439360236813F0010F79D06B
:100D64006368032B35D86368012B38D09A1E012A97
:100D74003CD96F4A126812F0020F00F0D0806C491F
:100D84008A6822F0030213438B60FFF719FB0646BF
:100D94006368012B31D0022B3ED0032B4BD0644B24
:100DA4009B6813F00C0F55D0FFF70AFB801B41F230
:100DB40088339842F3D90320A2E0E02BC5D0F02B6E
:100DC400C3D0D02BC1D040F24F21584800F0CAF80C
:100DD400BBE740F25621554800F0C4F8C3E7544A33
:100DE400126812F4003FCAD1012089E0504A126807
:100DF40012F0007FC3D1012082E04D4B9B6803F0C9
:100E04000C03042B26D0FFF7DBFA831B41F2883254
:100E14009342F2D9032073E0454B9B6803F00C0323
:100E2400082B17D0FFF7CCFA801B41F28833984285
:100E3400F2D9032064E03E4B9B6803F00C030C2BB7
:100E440008D0FFF7BDFA801B41F288339842F2D9EB
:100E5400032055E0344B1B6803F00F03AB4207D962
:100E6400EAB2314B1A701B6803F00F03AB4258D13E
:100E7400236813F0040F14D0E3685BB1B3F5805F0B
:100E840008D0B3F5A05F05D0B3F5C05F02D0B3F5C9
:100E9400E05F36D1264A936823F4E053E1680B43BC
:100EA4009360236813F0080F15D023695BB1B3F581
:100EB400805F08D0B3F5A05F05D0B3F5C05F02D062
:100EC400B3F5E05F23D11A4A936823F460432169A0
:100ED40043EAC1039360FFF7B5FE154B9B6803F02B
:100EE400F003F02292FAA2F2B2FA82F2D340114A4B
:100EF400D35CD840104B18600F20FFF729FA00206C
:100F040070BD4FF42D71094800F02CF8C2E740F28F
:100F1400BB21064800F026F8D5E70120F0E70120C0
:100F2400EEE70120ECE700BF003C02406412000839
:100F340000380240941200080C000020014B18688D
:100F4400704700BF0C000020FEE708B50120FFF742
:100F5400FBFF000001230360014B0B60704700BFDF
:100F64000400002008B5FFF7F0FF000008B500F00A
:100F740009F8024A024B9A6008BD00BF000000084D
:100F840000ED00E00C4B1A6842F001021A600021E7
:100F940099601A6822F0847222F480321A60074A37
:100FA4005A601A6822F480221A60D960044B4FF008
:100FB40000629A60704700BF00380240103000247D
:100FC40000ED00E0224B9B6803F00C03042B14D0CB
:100FD400082B16D01BB11F4B1F4A1A6002E01D4B91
:100FE4001D4A1A601A4B9B68C3F303131B4AD15C56
:100FF400184A1368CB4013607047164B184A1A609E
:10100400F0E7134B59685A6802F03F0211F4800F5D
:1010140013D0134BB3FBF2F30D4A5268C2F3881298
:1010240002FB03F30A4A5268C2F30142013252003E
:10103400B3FBF2F3074A1360D4E7074BB3FBF2F3B5
:10104400034A5268C2F3881202FB03F3EAE700BFC3
:10105400003802400C0000200024F400A412000810
:1010640000127A0030B587B00B4A136B43F00103CA
:101074001363202501950123029302220492039312
:10108400064C01A92046FFF737FA002229462046DC
:10109400FFF7A0FB07B030BD00380240000002405B
:1010A4000A4B1B680A4AA2FB03239B09013BB3F1C9
:1010B400807F0AD24FF0E0225361064BF02183F87F
:1010C4002310002393610723136170470C00002051
:1010D400D34D621000ED00E0034B1860024B1B6817
:1010E400002BFBD1704700BF20000020034B1B687E
:1010F4001BB1024A1368013B1360704720000020B3
:1011040008B5FFF755F9FFF7F1FF08BD30B595B005
:1011140000240194214B1A6C42F080521A641B6C17
:1011240003F080530193019B02941D4B1A6842F40F
:1011340080421A601B6803F480430293029B0123DC
:10114400089309934FF480030F93082310934FF4EB
:10115400A873119302251295072313930E9508A8DB
:10116400FFF754FB0F230393049505944FF4A05306
:1011740006934FF480530793052103A8FFF7AEFDB0
:10118400FFF7DCFE074BA3FB00308009FFF782F971
:101194000420FFF793F915B030BD00BF00380240BA
:1011A40000700040D34D621008B5FFF7E7F8FFF771
:1011B400ADFFFFF707FF08BD10B5FFF771FFFFF79D
:1011C40051FF00240CE04FF47A70FFF785FF0022F2
:1011D40020210848FFF7FEFAFA20FFF77DFF0134CB
:1011E400012220210348FFF7F5FA002CEBD040F24E
:1011F400EE20EAE700000240704700002E2E2F7315
:10120400797374656D2F7372632F73746D333266E3
:10121400342D68616C2F73746D3332663478785F63
:1012240068616C5F636F727465782E630000000000
:101234002E2E2F73797374656D2F7372632F7374ED
:101244006D333266342D68616C2F73746D3332667E
:101254003478785F68616C5F6770696F2E63000033
:101264002E2E2F73797374656D2F7372632F7374BD
:101274006D333266342D68616C2F73746D3332664E
:101284003478785F68616C5F7263632E630000007A
:101294000000000001020304010203040607080918
:1012A4000000000000000000010203040607080912
:1012B400785634121C000020000000000024F400C2
:0412C4003254769892
:040000050800018965
:00000001FF
